:020000040000FA
:100000000C9491000C94B9000C94B9000C94B900B4
:100010000C94B9000C94B9000C94B9000C94B9007C
:100020000C94B9000C94B9000C94B9000C94B9006C
:100030000C94B9000C94B9000C94B9000C94B9005C
:100040000C94890F0C94B9000C94570F0C94310F39
:100050000C94B9000C94B9000C94B9000C94B9003C
:100060000C94D30F0C94B900000000002500280068
:100070002B0000000008000201000003040700003C
:1000800000000000000000000000240027002A00FB
:10009000436F756C64206E6F742066696E642061B6
:1000A0002076616C696420424D503238302073658F
:1000B0006E736F722C20636865636B207769726959
:1000C0006E67206F722074727920612064696666A1
:1000D0006572656E7420616464726573732100508B
:1000E00072657373757265203D2000000000002367
:1000F000002600290004040404040404040202028B
:100100000202020303030303030102040810204058
:100110008001020408102001020408102000F210DF
:10012000971711241FBECFEFD8E0DEBFCDBF23E06D
:10013000A2EBB1E001C01D92AC38B207E1F711E0CB
:10014000A0E0B1E0E0E9FCE302C005900D92A23B23
:10015000B107D9F710E0C0E9D0E004C02197FE0153
:100160000E94341CCF38D107C9F70E94E9110C94C2
:100170003B1E0C9400008CBD9DBD089591E09093B2
:100180008802809387021092860210928502089559
:1001900008950895CF92DF92EF92FF92CF93DF936D
:1001A000B0917003A0E08111AB2F8091710390E0BA
:1001B000880F991FAC0145515F4FC0907603D090D6
:1001C0007703E0907803F090790330E020E0FA01C3
:1001D000C591D491E881B90190E080E0EB23EA1366
:1001E0000AC02F5F3F4F6C157D058E059F0578F384
:1001F0006FEF7FEFCB01DF91CF91FF90EF90DF901A
:10020000CF900895DC01ED91FC910190F081E02DFB
:100210000994AF92BF92CF92DF92EF92FF920F9329
:100220001F93CF93DF936C017B018B01040F151F8C
:10023000EB015E01AE18BF08C017D10759F06991F4
:10024000D601ED91FC910190F081E02DC601099558
:10025000892B79F7C501DF91CF911F910F91FF9005
:10026000EF90DF90CF90BF90AF900895FC01538D39
:10027000448D252F30E0842F90E0821B930B541780
:1002800010F0CF96089501970895FC01918D828D0D
:10029000981761F0A28DAE0FBF2FB11D5D968C91A6
:1002A000928D9F5F9F73928F90E008958FEF9FEFE5
:1002B0000895FC01918D828D981731F0828DE80FA1
:1002C000F11D858D90E008958FEF9FEF0895FC015B
:1002D000918D228D892F90E0805C9F4F821B910928
:1002E0008F739927089589E892E00E94670121E0C1
:1002F000892B09F420E0822F089580E090E0892B7B
:1003000029F00E94730181110C9400000895FC01F2
:10031000A48DA80FB92FB11DA35ABF4F2C91848D66
:1003200090E001968F739927848FA689B7892C93C3
:10033000A089B1898C91837080648C93938D848D16
:10034000981306C00288F389E02D80818F7D808319
:100350000895EF92FF920F931F93CF93DF93EC01D9
:1003600081E0888F9B8D8C8D98131AC0E889F9895C
:10037000808185FF15C09FB7F894EE89FF8960835F
:10038000E889F98980818370806480839FBF81E0E0
:1003900090E0DF91CF911F910F91FF90EF90089522
:1003A000F62E0B8D10E00F5F1F4F0F731127E02EFD
:1003B0008C8D8E110CC00FB607FCFACFE889F98935
:1003C000808185FFF5CFCE010E948701F1CFEB8DB3
:1003D000EC0FFD2FF11DE35AFF4FF0829FB7F89409
:1003E0000B8FEA89FB8980818062CFCF0F931F93A7
:1003F000CF93DF938C01D0E0C0E0F801EC0FFD1F3C
:100400006491662341F089E892E00E94A901892B5A
:1004100011F02196F2CFCE01DF91CF911F910F9174
:100420000895CF93DF93EC01888D8823B9F0AA89D2
:10043000BB89E889F9898C9185FD03C0808186FD9F
:100440000DC00FB607FCF7CF8C9185FFF2CF8081EE
:1004500085FFEDCFCE010E948701E9CFDF91CF91DB
:100460000895833081F028F4813099F08230A9F02A
:1004700008958730A9F08830C9F08430B1F48091B4
:1004800080008F7D03C0809180008F7780938000F3
:10049000089584B58F7784BD089584B58F7DFBCF93
:1004A0008091B0008F778093B00008958091B00064
:1004B0008F7DF9CF1F93CF93DF93282F30E0F90181
:1004C000EE58FF4F8491F901E75FFE4FD491F90197
:1004D000EB50FF4FC491CC23A9F0162F81110E943D
:1004E0003102EC2FF0E0EE0FFF1FE859FF4FA5910E
:1004F000B4918FB7F894EC91111108C0D095DE2318
:10050000DC938FBFDF91CF911F910895DE2BF8CF41
:10051000CF93DF9390E0FC01E75FFE4F24918B5077
:100520009F4FFC0184918823C9F090E0880F991FA8
:10053000FC01EA57FF4FA591B491FC01E859FF4F28
:10054000C591D49161110DC09FB7F8948C912095FD
:1005500082238C938881282328839FBFDF91CF91AA
:100560000895623051F49FB7F8943C91822F8095A2
:1005700083238C93E8812E2BEFCF8FB7F894EC91E7
:100580002E2B2C938FBFEACF3FB7F89480911702A0
:1005900090911802A0911902B0911A0226B5A89B59
:1005A00005C02F3F19F00196A11DB11D3FBFBA2F05
:1005B000A92F982F8827BC01CD01620F711D811DC5
:1005C000911D42E0660F771F881F991F4A95D1F74A
:1005D00008958F929F92AF92BF92CF92DF92EF9247
:1005E000FF926B017C010E94C4024B015C01C114AB
:1005F000D104E104F104B9F00E94C4026819790938
:100600008A099B09683E73408105910580F321E0CA
:10061000C21AD108E108F10888EE880E83E0981E1E
:10062000A11CB11CE4CFFF90EF90DF90CF90BF9062
:10063000AF909F908F900895CF92DF92EF92FF92AC
:100640000F931F93CF93DF93CDB7DEB7C054D14044
:100650000FB6F894DEBF0FBECDBF2FB7F8948091D0
:100660002F0290913002A0913102B09132022FBF3F
:1006700040917203509173036091740370917503FC
:100680008C019D01041B150B260B370BB901A8012A
:10069000403D57406105710590F480917A03C05C3C
:1006A000DE4F0FB6F894DEBF0FBECDBFDF91CF9106
:1006B0001F910F91FF90EF90DF90CF90089580935E
:1006C000720390937303A0937403B0937503109215
:1006D0006D0310926C0310926B0310926A031092D8
:1006E000690362E080916E030E94880261E070E01D
:1006F00080E090E00E94E90261E080916E030E9438
:10070000880260E080916E030E945A0280916F031C
:100710008551823020F58BE291E10197F1F762E09B
:1007200080916E030E94880280917B0390E082306A
:10073000910538F0880F991F880F991F0597019729
:10074000F1F7F89480E00E94CA006F3F7F4F8F4F0F
:100750009F4F61F410927A03789480E0A0CF64E117
:1007600070E080E090E00E94E902D9CF81E00E9431
:10077000CA006F3F7F4F8F4F9F4F61F38E010F5F16
:100780001F4F6E018FEBC81A8EEFD80A780180E0F8
:100790000E94CA00F701608371838283938381E0A2
:1007A0000E94CA00F7016483758386839783F8E00B
:1007B000EF0EF11CEC14FD0451F7789430E020E0CA
:1007C000F801C080D180E280F38044815581668148
:1007D0007781FFEFCF16DF06EF06FF0631F04F3FC0
:1007E0008FEF58076807780719F410927A03B5CF8E
:1007F000F90183E0F595E7958A95E1F7E759FC4F14
:100800008081880FC416D506E606F70610F18083AE
:100810002F5F3F4F085F1F4F2832310589F6409107
:100820006D032091690380916A03280F3327331FDA
:1008300080916B03280F311D80916C03820F932FE1
:10084000911D99274817190681F681E080937A0354
:1008500026CF8160DCCFFC01908190539A3008F064
:1008600090E0818180532AE0929F800D11240895A9
:100870000895AF92BF92CF92DF92EF92FF920F93C3
:100880001F93CF93DF93FC0124892F3F91F46EBD1A
:1008900000000DB407FEFDCFDEB48D2DDF91CF91AA
:1008A0001F910F91FF90EF90DF90CF90BF90AF908E
:1008B0000895B62EEC01D12C07E010E0EE24E3946D
:1008C000F12CDD0C60E08C890E945A02B701002EE9
:1008D00001C0660F0A94EAF76B218A890E945A02C6
:1008E00061E08C890E945A022B8930E0F901EE58B0
:1008F000FF4F8491F901E75FFE4FC490F901EB507F
:10090000FF4FA490AA2081F081110E943102EA2DAC
:10091000F0E0EE0FFF1FE551FF4FA591B491EC9170
:10092000CE2211F06894D0F80150110908F0C9CF17
:10093000B4CF089508952091F301260F3327331F74
:1009400021323105ECF420917F02FC0190E080E03F
:10095000243069F082E00895A091F3012191AC0167
:100960004D525E4FA40FB52FB11D2C9301968617E3
:1009700098F38091F301680F6093F30180E008958C
:1009800081E0089510927F0281E080935E021092D0
:10099000590261E082E10E945A0261E083E10E9413
:1009A0005A02E9EBF0E080818E7F808380818D7F29
:1009B000808388E48093B80085E48093BC00089528
:1009C000109238021092370210928602109285021D
:1009D0000E94C20488EC90E0909336028093350226
:1009E00089EC90E090933402809333020895CF9382
:1009F000DF9391E09093D2018823B9F0C091B800C1
:100A0000D091BA008091BC008A7B8093BC0060E0EA
:100A100082E10E945A0260E083E10E945A020E9431
:100A2000C204D093BA00C093B800DF91CF9108956B
:100A3000CF92DF92EF92FF920F931F93CF93DF93AA
:100A4000D82FC62F613208F098C00E94C4026B01F3
:100A50007C0180917F0281116BC081E080937F02D5
:100A600080935E029FEF90935D0210925C029C0F58
:100A700090935B0280935A0280915A02DD0FD82B2B
:100A8000D0935A0280915902813009F078C01092B7
:100A900059020E94C4026B017C0180915A0280932A
:100AA000BB008091810290918202A0918302B0915B
:100AB0008402892B8A2B8B2BA1F00E94C402009107
:100AC00081021091820220918302309184026C197C
:100AD0007D098E099F09061717072807390708F4AB
:100AE00048C08091BC0083FDD8CF85EC8093BC00CA
:100AF0000E94C4026B017C0180917F02813009F465
:100B000040C080915C028C1710F4C0915C02E9E354
:100B1000F2E0AFE5B2E080E08C1355C08C2FDF919E
:100B2000CF911F910F91FF90EF90DF90CF9008959C
:100B30008091810290918202A0918302B0918402FF
:100B4000892B8A2B8B2B09F484CF0E94C40200913D
:100B500081021091820220918302309184026C19EB
:100B60007D098E099F09061717072807390708F01E
:100B700070CF809180020E94F704C0E0CFCF85EE55
:100B8000B5CF8091810290918202A0918302B091B1
:100B90008402892B8A2B8B2B09F4AECF0E94C402CE
:100BA000009181021091820220918302309184028F
:100BB0006C197D098E099F09061717072807390741
:100BC00008F09ACFD6CF91919D938F5FA5CF0895CE
:100BD000E091380280913702E81730F4F0E0E15AF2
:100BE000FD4F808190E008958FEF9FEF08959091E1
:100BF0003802809137022FEF3FEF981748F4E92F22
:100C0000F0E0E15AFD4F208130E09F5F9093380281
:100C1000C90108958091370290913802891B990B80
:100C20000895CF92DF92EF92FF920F931F93CF938D
:100C3000DF937C01CB018A0120918802222389F075
:100C4000EB016B01C40ED51ECC15DD0569F0699171
:100C5000D701ED91FC910190F081E02DC70109953C
:100C6000F3CF642F0E949B04C801DF91CF911F91A5
:100C70000F91FF90EF90DF90CF900895CF93DF9387
:100C80001F92CDB7DEB76983209188022223F9F045
:100C900020918502203258F021E030E0FC013383BE
:100CA000228390E080E00F90DF91CF9108958091B2
:100CB0008602E82FF0E0EE54FE4F998190838F5F1B
:100CC000809386028093850281E090E0ECCF61E022
:100CD000CE0101960E949B04F7CFCF92DF92EF9254
:100CE000FF920F931F93CF93DF93D091850281E002
:100CF000D13208F09CC0C09187020E94C4026B01EF
:100D00007C0180917F0281116CC082E080937F0220
:100D100081E080935E028FEF80935D0210925C020F
:100D2000D0935B02A2EBB1E0E9E3F2E080E0D813FC
:100D30008DC010925A0280915A02CC0FC82BC093DA
:100D40005A0280915902813009F084C010925902F0
:100D50000E94C4026B017C0180915A028093BB0007
:100D60008091810290918202A0918302B0918402CD
:100D7000892B8A2B8B2BA1F00E94C4020091810247
:100D80001091820220918302309184026C197D09B6
:100D90008E099F09061717072807390708F442C06C
:100DA0008091BC0083FDD8CF85EC8093BC000E946D
:100DB000C4026B017C0180917F02823009F44CC037
:100DC00080915D028F3F09F469C080915D0280329D
:100DD00009F466C080915D02803309F463C084E049
:100DE00026C08091810290918202A0918302B091ED
:100DF0008402892B8A2B8B2B09F483CF0E94C40297
:100E0000009181021091820220918302309184022C
:100E10006C197D098E099F090617170728073907DE
:100E200008F06FCF809180020E94F70485E0109255
:100E300086021092850210928802DF91CF911F9155
:100E40000F91FF90EF90DF90CF9008959D91919337
:100E50008F5F6DCF85EEA9CF809181029091820244
:100E6000A0918302B0918402892B8A2B8B2B09F4E9
:100E7000A2CF0E94C40200918102109182022091AF
:100E80008302309184026C197D098E099F0906172F
:100E900017072807390708F08ECFC4CF80E0C7CFE7
:100EA00082E0C5CF83E0C3CFCF93DF93C82FD62F87
:100EB00080914B038F3F21F5809142030E94BE0039
:100EC00080913A0390913B03DC01ED91FC910190FC
:100ED000F081E02D6C2F099580913A0390913B03AE
:100EE000DC01ED91FC910190F081E02D6D2F0995D1
:100EF00080913A0390913B03DF91CF910C946D0662
:100F000080914E038F3F21F482E591E00E94BB0067
:100F100060E080914B030E945A026C2F6F778AE346
:100F200093E00E9439046D2F8AE393E00E94390414
:100F300061E080914B03DF91CF910C945A02CF93E3
:100F4000DF93C8E6D3E08770886E8883E7E6F3E036
:100F5000962F9770990F990F990F8081807C242F7D
:100F60002770892B822B808395E0440F551F9A951B
:100F7000E1F787FB882780F9482B660F771F660FFC
:100F8000771F642B85EF0E9454078881682F677054
:100F900090E2699FB0011124282F26952695269569
:100FA000277094E0299F90011124622B82958695E9
:100FB00086958370682B84EFDF91CF910C94540752
:100FC0000F931F93CF938C01C62FFC0184810E9445
:100FD000BE00F80163856C2B8EE293E00E943E0612
:100FE0008EE293E0CF911F910F910C946D060895BE
:100FF00090E080E008958F929F92AF92BF92CF923F
:10100000DF92EF92FF92CF93DF93EC01F62E898966
:101010008F3F09F05FC088850E94BE00888199815A
:10102000DC01ED91FC910190F081E02D6F2D09958F
:10103000888199810E946D0663E088850E94180569
:10104000109238028093370288819981DC01ED91FA
:10105000FC910284F385E02D09954C01990FAA08B3
:10106000BB08BA2CA92C982C882488819981DC0192
:10107000ED91FC910284F385E02D0995092E000C79
:10108000AA0BBB0B882A992AAA2ABB2ABA2CA92CFC
:10109000982C882488819981DC01ED91FC9102844F
:1010A000F385E02D0995092E000CAA0BBB0B6C01F2
:1010B0007D01C828D928EA28FB28C701B601DF919D
:1010C000CF91FF90EF90DF90CF90BF90AF909F9027
:1010D0008F9008958C898F3F21F482E591E00E94E2
:1010E000BB0060E089890E945A026F2DCE010E94E8
:1010F000390460E0CE010E94390490E0B0E0A0E045
:10110000CC24D82EE92EFA2E60E0CE010E943904BC
:10111000C82AFE2CED2CDC2CCC2460E0CE010E94F1
:101120003904C82A61E089890E945A02C6CF8F9289
:101130009F92AF92BF92CF92DF92EF92FF920F9366
:101140001F93CF93DF93EC016AEF0E94FB070D8999
:101150001E8930E020E0C72ED82EE92EFF24E7FCC0
:10116000FA94C01AD10AE20AF30A57E095958795D6
:10117000779567955A95D1F7000F111F221F331FDE
:101180004B015C01801A910AA20AB30AA5019401DD
:10119000AF89B88D0E94E01A4B015C01FBE0B59469
:1011A000A79497948794FA95D1F7A7019601C70160
:1011B000B6010E94A21A9B01AC01ACE0559547957F
:1011C00037952795AA95D1F7A98DBA8D0E94E01A77
:1011D0009B01AC01BEE05595479537952795BA958B
:1011E000D1F7280D391D4A1D5B1D2D873E874F877E
:1011F000588BA5E0B0E00E94DE1860587F4F8F4FFB
:101200009F4F672F782F892F992787FD9A950E94E6
:10121000C11720E030E048EC52E40E949C19DF91B5
:10122000CF911F910F91FF90EF90DF90CF90BF90E3
:10123000AF909F908F9008952F923F924F925F9220
:101240006F927F928F929F92AF92BF92CF92DF92D6
:10125000EF92FF920F931F93CF93DF93CDB7DEB73B
:101260006D970FB6F894DEBF0FBECDBF9D8F8C8FEC
:101270000E94970867EF8C8D9D8D0E94FB07688FF9
:10128000798F8A8F9B8FEC8DFD8D85859685A785BF
:10129000B0896C017D01FF0CCC08DC2C76019C012F
:1012A000AD016C2D7C2D8C2D9C2D345F414051095E
:1012B000610971098109910929873A874B875C8700
:1012C0003B014C0159016A017B018C010E94E81A23
:1012D000322E232E4A8B5B8B6C8B7D8B8E8B9F8B60
:1012E000AC8DBD8D5E963C915E975D962C91932F53
:1012F000990F990B492F592F692F792F892F0E9408
:10130000E81A0CE00E94E01B522E39834D875E875D
:101310006F87788B898B492EEC8DFD8D30A1278DC1
:10132000932F990F990BA32CB22CCA88DB88EC88D9
:10133000FD880E891F89492F592F692F792F892FF1
:101340000E94E81A08E00E94F91BA52CB980CD8400
:10135000DE84EF84F8880989142D0E94161C7058C9
:101360008F4F9F4FAC8DBD8D5B96ED91FC915F01D2
:10137000D12CC12CE12CF12C8701E983BA82CB82DC
:10138000DC82ED82FE820F831887C12CD12CE12CE8
:10139000F12C00E010E00E94E81A01E20E94F91B23
:1013A0002983532E4D875E876F87788B898B492ED3
:1013B000A0E00E94281C09F43DC1AC8DBD8D96961D
:1013C0003C91969795962C91932F990F990BA32C5E
:1013D000B22CCA88DB88EC88FD880E891F89492FCA
:1013E000592F692F792F892F0E94E81A19014A8BEA
:1013F0005B8B6C8B7D8B8E8B9F8BEC8DFD8D34A1ED
:1014000023A1932F990F990BA984BA84CB84DC84F0
:1014100073018401492F592F692F792F892F0E9439
:10142000E81A01E10E94E01B5101CA88DB88EC88C0
:10143000FD880E891F890E94161C59016A017B01D3
:10144000282E192F488D598D6A8D7B8D84E07595D6
:101450006795579547958A95D1F780E090E0A0E190
:10146000B0E0841B950BA60BB70B3C014D01990C0A
:101470006608762C43019C01AD01662D762D862DE4
:10148000962D0FE10E94E01B722E832E942E652E66
:10149000B62FA72F382E9987EC8DFD8D32A121A173
:1014A000932F990F990B492F592F692F792F892F36
:1014B00003E20E94E01B022D0E94161C59016A01E2
:1014C0007B018C01272D382D492D562D6B2F7A2F1E
:1014D000832D99850E941F1CE5E3AE2EFCE0BF2EF4
:1014E000C12CD12CE12CF12C00E010E00E94E81A74
:1014F000A980B52CCD84DE84EF84F8880989142D69
:101500000E94421B29873A874B875C8769837D87C6
:101510008E879F870DE00E94F91B922E832E742EDA
:10152000652E562E472E382E292EAC8DBD8D9C96BD
:101530003C919C979B962C91932F990F990BA92CDA
:10154000B82CC72CD62CE52CF42C032D122D492FAA
:10155000592F692F792F892F0E94E81A0E94E81AC3
:1015600009E10E94F91BA984BA84CB84DC84E98058
:10157000FD840E851F850E94161C19012A013B015E
:101580004C01EC8DFD8D32A521A5932F990F990B60
:10159000492F592F692F792F892F0E94E81A03E1CB
:1015A0000E94F91B59016A017B018C019101A20182
:1015B000B301C4010E94161C08E00E94F91B5901E6
:1015C0006A017B01E82F192FAC8DBD8D98963C9157
:1015D000989797962C91932F990F990B492F592FE4
:1015E000692F792F892F04E00E94E01B0E2F0E94A3
:1015F000161C0E94441A20E030E040E85BE30E94A1
:1016000020186D960FB6F894DEBF0FBECDBFDF91E8
:10161000CF911F910F91FF90EF90DF90CF90BF90EF
:10162000AF909F908F907F906F905F904F903F9082
:101630002F90089560E070E0CB01E3CFCF93DF936C
:10164000C82F80914B038F3F09F040C08091420327
:101650000E94BE0080913A0390913B03DC01ED9122
:10166000FC910190F081E02D6C2F099580913A0357
:1016700090913B030E946D0662E0809142030E94BC
:101680001805109238028093370280913A039091A6
:101690003B03DC01ED91FC910284F385E02D09957B
:1016A000C82F80913A0390913B03DC01ED91FC91AE
:1016B0000284F385E02D099520E03C2FE901C82B39
:1016C000D92B9C2F8D2FDF91CF91089580914E03C0
:1016D0008F3F21F482E591E00E94BB0060E08091A1
:1016E0004B030E945A026C2F8AE393E00E94390454
:1016F00060E08AE393E00E943904C82F60E08AE347
:1017000093E00E943904DC2FC82F61E080914B03E5
:101710000E945A02D6CF0F931F93CF938C01C62FEE
:101720000E94E0076C2F6460C8010E94E0076C2FE4
:101730006B7FC8010E94E00783EC90E00197F1F70E
:10174000CF911F910F9108950F931F93CF93DF9324
:101750008C01D62FC42F607F642B0E948B0B80E1FD
:10176000D89FB00111246C2BC801DF91CF911F913C
:101770000F910C948B0BCF93DF93CDB7DEB72897E7
:101780000FB6F894DEBF0FBECDBF98E0E6E0F1E003
:10179000DE01119601900D929A95E1F790918403E4
:1017A000961708F46FEF262F30E0220F331F41E029
:1017B00050E04C0F5D1F240F351FF9016081680F49
:1017C000606840E08CE793E028960FB6F894DEBF9F
:1017D0000FBECDBFDF91CF910C94A40B41E00E94CE
:1017E000A40B81E090E00895FB0101900020E9F74F
:1017F0003197AF01461B570BDC01ED91FC91028044
:10180000F381E02D09948F929F92AF92BF92EF9255
:10181000FF920F931F93CF93DF93CDB7DEB7A197BE
:101820000FB6F894DEBF0FBECDBF7C01FA01CB012D
:1018300019A2223008F42AE08E010F5D1F4F822E7C
:10184000912CB12CA12CBF01A50194010E94BE1ABC
:10185000F901CA016A300CF5605DD8016E938D0103
:10186000232B242B252B79F790E080E0109721F093
:10187000BD01C7010E94F40BA1960FB6F894DEBF1C
:101880000FBECDBFDF91CF911F910F91FF90EF90D1
:10189000BF90AF909F908F900895695CDECFCF92FC
:1018A000DF92EF92FF920F931F93CF93DF936B0121
:1018B000770FEE08FF08F7FE1BC0EC016DE20E94F7
:1018C00002018C0144275527BA014C195D096E09A4
:1018D0007F092AE0CE010E94030C800F911FDF9147
:1018E000CF911F910F91FF90EF90DF90CF900895CF
:1018F0002AE0B701A601DF91CF911F910F91FF90D0
:10190000EF90DF90CF900C94030C2F923F924F9268
:101910005F926F927F928F929F92AF92BF92CF927F
:10192000DF92EF92FF921F93CF93DF93EC016A0156
:101930007B01722EAB019601CB01B6010E949D1A6C
:101940006AE571E0811126C046015701E894B7F8B5
:101950002FEF3FEF4FE75FE7C501B4010E949D1AEB
:1019600081110CC02FEF3FEF4FE75FE7C501B401D6
:101970000E94BA176EE571E0181664F02FEF3FEF82
:101980004FE75FE4C701B6010E94981A1816B4F435
:1019900062E671E0CE01DF91CF911F91FF90EF9051
:1019A000DF90CF90BF90AF909F908F907F906F907F
:1019B0005F904F903F902F900C94F40B2FEF3FEFE0
:1019C0004FE75FECC701B6010E94BA1787FDE0CF71
:1019D00020E030E0A901C701B6010E94BA17312CFE
:1019E000212C87FF09C06DE2CE010E9402011C017B
:1019F000F7FAF094F7F8F09410E060E070E080E01F
:101A00009FE3711641F020E030E040E251E40E9493
:101A10009C191F5FF6CFA70196010E9430192B0178
:101A20003C010E94151A4B015C012AE0BC01A40193
:101A3000CE010E94030C7C01E20CF31C1123C1F1C6
:101A4000C501B4010E94BF179B01AC01C301B201E3
:101A50000E942F194B015C016EE2CE010E9402012F
:101A6000E80EF91E115020F120E030E040E251E490
:101A7000C501B4010E9420182B013C010E94151AD7
:101A80004B01B12CA12C2AE0B501A401CE010E948A
:101A9000030CE80EF91EC501B4010E94BF179B019B
:101AA000AC01C301B2010E942F194B015C01DACFD6
:101AB000C701DF91CF911F91FF90EF90DF90CF9002
:101AC000BF90AF909F908F907F906F905F904F905E
:101AD0003F902F9008950C94D61C0C94D61CCF9355
:101AE000DF93EC018091260390912703009759F032
:101AF00020912803309129032C173D0720F081E025
:101B0000DF91CF910895BE016F5F7F4F0E945F1DEF
:101B1000009789F09093270380932603D09329039D
:101B2000C093280320912A0330912B03232B39F7EC
:101B3000FC011082E4CF80E0E3CF0F931F93CF939B
:101B4000DF938C01EC0109900020E9F72197C81B75
:101B5000D90BCE010E946F0D2091260330912703EF
:101B6000811117C02115310519F0C9010E94D61C39
:101B7000109227031092260310922B0310922A032F
:101B80001092290310922803DF91CF911F910F919A
:101B90000895D0932B03C0932A03B801C901DF91A4
:101BA000CF911F910F910C94251ECF93DF93EB01E2
:101BB000FB01349620E2DF011D922A95E9F744E209
:101BC00050E060E070E0488359836A837B83FC01C6
:101BD00043815481052E000C660B770B4C835D838B
:101BE0006E837F8346E050E060E070E0488759876D
:101BF0006A877B872FB7F89440912F02509130026B
:101C000060913102709132022FBF488B598B6A8BE1
:101C10007B8B858196810E941C0920E030E048EC96
:101C200052E40E949C196C8B7D8B8E8B9F8B81E084
:101C3000DF91CF910895CF93DF93EB01FB013496B1
:101C400020E2DF011D922A95E9F744E250E060E0CE
:101C500070E0488359836A837B83FC01438154810C
:101C6000052E000C660B770B4C835D836E837F83A0
:101C70004DE050E060E070E0488759876A877B87D5
:101C80002FB7F89440912F025091300260913102A9
:101C9000709132022FBF488B598B6A8B7B8B858169
:101CA00096810E9497086C8B7D8B8E8B9F8B81E039
:101CB000DF91CF9108950F931F93CF93DF938C0102
:101CC000EB0188E2FB0111928A95E9F74BE050E0C5
:101CD00066E671E0CE010E942C1E1B8681E090E03A
:101CE000A0E0B0E08C879D87AE87BF87F801838135
:101CF0009481092E000CAA0BBB0B888B998BAA8BA5
:101D0000BB8B86E090E0A0E0B0E08C8B9D8BAE8B2F
:101D1000BF8B1CA21DA21EA21FA280E090E0A6E91C
:101D2000B3E48C8F9D8FAE8FBF8F80E090E8A9E8E1
:101D3000B4E4888F998FAA8FBB8F86EA9BE9A4E4CD
:101D4000BCE388A399A3AAA3BBA3DF91CF911F9162
:101D50000F9108950F931F93CF93DF938C01EB01A5
:101D600088E2FB0111928A95E9F74BE050E066E6C4
:101D700071E0CE010E942C1E1B8681E090E0A0E065
:101D8000B0E08C879D87AE87BF87F80183819481FF
:101D9000092E000CAA0BBB0B888B998BAA8BBB8BD3
:101DA0008DE090E0A0E0B0E08C8B9D8BAE8BBF8B84
:101DB0001CA21DA21EA21FA280E090E0A0E2B2EC35
:101DC0008C8F9D8FAE8FBF8F80E090E0AAEAB2E447
:101DD000888F998FAA8FBB8F8AE097EDA3E2BCE32F
:101DE00088A399A3AAA3BBA3DF91CF911F910F91C1
:101DF000089585ED8093BC008091810290918202CC
:101E0000A0918302B09184020796A11DB11D23E029
:101E1000B695A795979587952A95D1F72091BC00FF
:101E200024FD03C010927F020895409181025091D9
:101E300082026091830270918402452B462B472BCE
:101E400069F30097A105B10541F025E32A95F1F763
:101E500000000197A109B109E1CF809180020C94A3
:101E6000F7041F920F920FB60F9211242F933F93F6
:101E70004F935F936F937F938F939F93AF93BF9392
:101E8000EF93FF9389E892E00E948701FF91EF9121
:101E9000BF91AF919F918F917F916F915F914F9182
:101EA0003F912F910F900FBE0F901F9018951F928A
:101EB0000F920FB60F9211242F938F939F93EF934E
:101EC000FF93E0919902F0919A028081E0919F0244
:101ED000F091A00282FD1BC090818091A2028F5FD1
:101EE0008F732091A302821741F0E091A202F0E0EB
:101EF000E757FD4F958F8093A202FF91EF919F913D
:101F00008F912F910F900FBE0F901F901895808189
:101F1000F4CF1F920F920FB60F9211242F933F937D
:101F20008F939F93AF93BF9380912F029091300234
:101F3000A0913102B09132023091160223E0230FBA
:101F40002D3758F50196A11DB11D209316028093DF
:101F50002F0290933002A0933102B093320280910D
:101F6000170290911802A0911902B0911A020196DD
:101F7000A11DB11D8093170290931802A09319021E
:101F8000B0931A02BF91AF919F918F913F912F9182
:101F90000F900FBE0F901F90189526E8230F029602
:101FA000A11DB11DD2CF1F920F920FB60F92112417
:101FB0002F933F934F935F936F937F938F939F9351
:101FC000AF93BF93EF93FF938091B900887F8036E2
:101FD00009F44AC0F0F5883209F4A7C018F5803139
:101FE00009F49BC0B8F4882309F4F9C0883009F4D7
:101FF00094C0FF91EF91BF91AF919F918F917F918D
:102000006F915F914F913F912F910F900FBE0F9065
:102010001F901895883109F488C0803251F7809359
:102020005D0214C0803409F49DC040F48033B9F3DC
:102030008833F9F680935D0285ECB0C0803509F4F1
:1020400085C0883509F496C0883499F60E94F90E47
:10205000D0CF883909F48CC038F5883729F050F48E
:10206000883611F0803729F683E080937F02109242
:10207000150257C0883809F47BC0803919F08038C0
:1020800009F0B7CF80911502803208F071C0E0915D
:10209000150281E08E0F809315028091BB00F0E065
:1020A000EB50FE4F80833DC0803B39F0E0F4803A36
:1020B00009F479C0883A09F09CCF84E080937F02CC
:1020C0001092F4011092F301E0913502F091360282
:1020D00009958091F30181110FC081E08093F30194
:1020E0001092D30109C0803C09F4A6CF883C09F4C2
:1020F000A3CF883B09F07DCFE091F40181E08E0F02
:102100008093F401F0E0ED52FE4F80818093BB009C
:102110009091F4018091F30129C080915A0280933B
:10212000BB0085EC8093BC0064CF90915C028091F1
:102130005B02981758F5E0915C0281E08E0F809366
:102140005C02F0E0E75CFD4F8081E9CFE0915C024A
:1021500081E08E0F80935C028091BB00F0E0E75C31
:10216000FD4F808390915C0280915B029817C8F2CA
:1021700085E8D8CFE0915C0281E08E0F80935C020D
:102180008091BB00F0E0E75CFD4F808380915E02B0
:1021900081115CCF81E08093590284EA8093BC0076
:1021A00010927F0226CF85EC8093BC0010927F02B4
:1021B00080911502803230F4E0911502F0E0EB508E
:1021C000FE4F10826091150270E0E0913302F091B1
:1021D000340285EF91E00995109215020ACF109212
:1021E0005D0234CFCF93DF9310928C0210928B025A
:1021F00088EE93E0A0E0B0E080938D0290938E0291
:10220000A0938F02B093900222E131E030938A02D2
:102210002093890225EC30E03093960220939502BA
:1022200024EC30E0309398022093970220EC30E0C9
:1022300030939A022093990221EC30E030939C0273
:1022400020939B0222EC30E030939E0220939D026B
:1022500026EC30E03093A00220939F021092A2025D
:102260001092A3021092A4021092A50210923103C0
:10227000109230038093320390933303A09334037E
:10228000B093350384E291E090932F0380932E0363
:1022900010927F0310927E0382E591E090937D037C
:1022A00080937C0387E28093800380E180938503A1
:1022B00082E0809386031092870380936E0386E109
:1022C00080936F03EBE0F1E0E491E0937003E7EFBC
:1022D000F0E0E491E093710380E89EE3A0E0B0E0D9
:1022E0008093760390937703A0937803B093790358
:1022F000CAE3D3E08FEF80934B0380934C0380932A
:102300004D0380934E038EE293E090933B038093C2
:102310003A0387E090E00E943A1CFC0184E491E0DB
:102320009183808388E191E094838383D683C583FE
:10233000F0933F03E0933E0387E090E00E943A1C55
:10234000FC0186E391E09183808314821382D6831B
:10235000C583F0934103E093400384E893E09093B6
:102360002D0380932C0310922703109226031092C2
:1023700029031092280310922B0310922A0390E055
:1023800080E00E946F0D2091260330912703811178
:1023900015C02115310519F0C9010E94D61C1092F3
:1023A00027031092260310922B0310922A031092F7
:1023B000290310922803DF91CF91089510922B03E7
:1023C00010922A0364E871E0C901DF91CF910C9467
:1023D000251E789484B5826084BD84B5816084BDF7
:1023E00085B5826085BD85B5816085BD80916E00B3
:1023F000816080936E0010928100809181008260E4
:102400008093810080918100816080938100809120
:1024100080008160809380008091B100846080930F
:10242000B1008091B00081608093B00080917A000B
:10243000846080937A0080917A00826080937A0031
:1024400080917A00816080937A0080917A00806820
:1024500080937A001092C10062E080916E030E9426
:1024600088022FB7F89480912F0290913002A091AA
:102470003102B09132022FBF805D9740A109B109AE
:102480008093720390937303A0937403B0937503C6
:1024900087E380937B030E94E00410928103809184
:1024A0008603823018F098E0909381038093840330
:1024B00062E370E080E090E00E94E90260918703AF
:1024C0008CE793E00E94E00768EE73E080E090E024
:1024D0000E94E90260E38CE793E00E948B0BCBE45F
:1024E000D6E4CE010197F1F760E38CE793E00E9418
:1024F0008B0B2197F1F760E38CE793E00E948B0B45
:1025000083E592E00197F1F760E28CE793E00E94A7
:102510008B0B60918103606240E08CE793E00E9446
:10252000A40B84E08093820340E06CE08CE793E0AE
:102530000E94A40B40E061E08CE793E00E94A40BB2
:10254000CBE3DFE1CE010197F1F712E010938303B3
:1025500040E066E08CE793E00E94A40B40E062E07C
:102560008CE793E00E94A40B2197F1F788E0809319
:10257000870360E08CE793E00E94E007E091990216
:10258000F0919A021083E0919502F09196021082E8
:10259000E0919702F09198028FEC80831092A10253
:1025A000E0919D02F0919E0286E08083E0919B0283
:1025B000F0919C02808180618083E0919B02F09188
:1025C0009C02808188608083E0919B02F0919C0254
:1025D000808180688083E0919B02F0919C028081E1
:1025E0008F7D80830E94E0040E94E00488E60E94C0
:1025F000BE008EE293E00E946D0686E791E00E94A5
:102600002B04C82F81E791E00E942B04182F89E743
:1026100091E00E942B04082F8CE791E00E942B048C
:10262000F82E8FE791E00E942B04E82E88E60E94A6
:10263000BE0060E08EE293E00E943E06DAE08E2D5E
:102640006D2F0E94B21A682F660F680F660F6E0D0D
:102650008EE293E00E943E068F2D6D2F0E94B21AEB
:10266000682F660F680F660F6F0D8EE293E00E9471
:102670003E06802F6D2F0E94B21A682F660F680FDA
:10268000660F600F8EE293E00E943E0660E08EE2ED
:1026900093E00E943E06812F6D2F0E94B21A682F90
:1026A000660F680F660F610F8EE293E00E943E0690
:1026B00064E08EE293E00E943E068C2F6D2F0E9414
:1026C000B21A682F660F680F660F6C0F8EE293E0E8
:1026D0000E943E068EE293E00E946D0686E780939C
:1026E000420380914B038F3F09F046C00E94E004F3
:1026F00080914B038F3F09F08EC0809142030E946E
:10270000BE0080913A0390913B03DC01ED91FC9176
:102710000190F081E02D60ED099580913A03909150
:102720003B030E946D0661E0809142030E94180500
:10273000109238028093370280913A0390913B03C4
:10274000DC01ED91FC910284F385E02D0995C82F01
:10275000C83509F47EC080E990E00E94F60162E885
:1027600071E089E892E00E94F40B6AE070E080E09A
:1027700090E00E94E902F9CF61E00E945A0261E014
:1027800080914B030E94880280914E038F3F09F095
:1027900034C0CFB7F89480911B02811127C0EFEFAE
:1027A000F0E08491E3E1F1E09491E82FF0E0EE0FA6
:1027B000FF1FEA57FF4FA591B491EC91E92321F453
:1027C00061E08AE00E945A0261E08AE00E94880289
:1027D0008CB580618CBD8CB580648CBD61E08DE072
:1027E0000E94880261E08BE00E94880280911B02B7
:1027F0008F5F80931B02CFBF7BCF61E00E94880276
:1028000061E080914C030E94880260E080914D035A
:102810000E9488026DCF80914E038F3F21F482E5A4
:1028200091E00E94BB0060E080914B030E945A023D
:1028300060ED8AE393E00E94390460E08AE393E06C
:102840000E943904C82F61E080914B030E945A0214
:102850007FCF88E80E941E0B9093500380934F0314
:102860008AE80E941E0B90935203809351038CE8D8
:102870000E941E0B90935403809353038EE80E9492
:102880001E0B909356038093550380E90E941E0B04
:10289000909358038093570382E90E941E0B9093F4
:1028A0005A038093590384E90E941E0B90935C03A2
:1028B00080935B0386E90E941E0B90935E038093D6
:1028C0005D0388E90E941E0B9093600380935F0371
:1028D0008AE90E941E0B90936203809361038CE946
:1028E0000E941E0B90936403809363038EE90E9401
:1028F0001E0B909366038093650350E040E070E008
:1029000060E085E090E00E949F0764E670E080E070
:1029100090E00E94E90244E050E064E070E082E070
:1029200090E00E949F070BE31FE1F0E0EF2EF0E044
:10293000FF2EDD24D39480912D0290912E020196DA
:1029400090932E0280932D02C0912B02D0912C02E5
:102950002296D0932C02C0932B0260ED77E080E0AA
:1029600090E00E94E9020E941C03882349F08091B4
:102970006F038B3028F08D3040F085518230D0F1DC
:1029800060E070E080EC9FE71CC060916A0370E03B
:1029900090E080E00E94C1172DEC3CEC4CEC5DE334
:1029A0000E9420184B015C016091690370E090E087
:1029B00080E00E94C1179B01AC01C501B4010E94D7
:1029C00030190E940E1A70932A02609329020E9405
:1029D0001C03882341F080916F038C3009F485C17A
:1029E000D8F48B3091F1812C912C60ECA62E6FE7FE
:1029F000B62E55C06091690370916A0376276727E8
:102A0000762790E080E00E94BF172DEC3CEC4CEC68
:102A10005DE30E942018D5CF8551823020F7C09009
:102A20006B036C2D70E0762F662766277F77809189
:102A30006C03682B90E080E00E94BF172DEC3CEC0B
:102A40004CEC5DE30E9420186CC160916B0370E058
:102A500090E080E00E94BF174B015C01C0906C03C6
:102A6000C7FE0AC0AC019B0160E070E080E89FEB0C
:102A70000E942F194B015C016C2D6F7070E090E08B
:102A800080E00E94C1172DEC3CEC4CEC5DE30E9411
:102A90002018A50194010E9430194B015C0180921D
:102AA000250290922602A0922702B09228026091FD
:102AB0002C0370912D03072E000C880B990B0E949C
:102AC000C1179B01AC01C501B4010E949C19209162
:102AD000240221112FC19B01AC0160912002709151
:102AE000210280912202909123020E94301960936A
:102AF0002002709321028093220290932302C83017
:102B0000D74034F0D092240210922C0210922B0263
:102B100040E061E08CE793E00E94A40BC8010197BC
:102B2000F1F788E60E94BE0060E08EE293E00E942A
:102B30003E068EE293E00E946D0667E088E60E9402
:102B4000180510923802809337028EE293E00E94BB
:102B5000F7058F77282F30E094E0359527959A95E3
:102B6000E1F7922F990F990FC22FC91BCC0FC80FF5
:102B70008EE293E00E94F7059C0144E0359527958D
:102B80004A95E1F72F703327922F990F990FC22E94
:102B9000C91ACC0CC80E8EE293E00E94F7059C0186
:102BA00054E0359527955A95E1F72F703327922FEA
:102BB000990F990F291B422F440FD42FD80F8EE263
:102BC00093E00E94F7058EE293E00E94F7058EE203
:102BD00093E00E94F7058EE293E00E94F70560E023
:102BE0008AE00E94BB0B6EE871E08CE793E00E94E4
:102BF000F40B4D2F50E070E060E02AE08CE793E0AA
:102C00000E94030C6AE38CE793E00E9402018C2C83
:102C1000912CB12CA12CA9E0AC1568F060E08EE0FD
:102C20000E94BB0B60E38CE793E00E94020160E02E
:102C30008FE00E94BB0B2AE0B501A4018CE793E072
:102C40000E94030C6AE38CE793E00E9402014C2F80
:102C500050E070E060E02AE08CE793E00E94030C13
:102C600060E088E00E94BB0B40912A0350912B0347
:102C700060912603709127038CE793E00E9409017D
:102C80006091290270912A02072E000C880B990B83
:102C90000E94C1179B01AC010E949D1A81110FC0B7
:102CA000609125027091260280912702909128025E
:102CB0009B01AC010E949D1A882309F492C060E038
:102CC00080E00E94BB0B60E971E08CE793E00E941A
:102CD000F40BE114F10409F42ECE0E947301882351
:102CE00009F429CE0E94000026CEC0906B036C2D03
:102CF00070E090E080E00E94BF174B015C016091A2
:102D00006C036F7070E090E080E00E94C1172DECC2
:102D10003CEC4CEC5DE30E942018A50194010E945C
:102D200030194B015C01C7FEBACEB7FAB094B7F8C0
:102D3000B094B5CE20911C0230911D0240911E022C
:102D400050911F020E9430194B015C0180921C02BD
:102D500090921D02A0921E02B0921F02C830D7406E
:102D60000CF4D6CE10922C0210922B02209120024D
:102D7000309121024091220250912302C501B401F9
:102D80000E942F192B013C012DEC3CEC4CE45EE33E
:102D90000E94981A1816ACF485E891E00E949D0DE7
:102DA0008092200290922102A0922202B0922302ED
:102DB00010921C0210921D0210921E0210921F020D
:102DC000A7CE2DEC3CEC4CE45EEBC301B2010E94BB
:102DD000BA1787FF03C088E891E0E0CF8BE891E065
:102DE000DDCF6EE871E089E892E00E94F40B62E8C2
:102DF00071E089E892E00E94F40B60912D027091DD
:102E00002E0289E892E00E944F0C6EE871E089E89A
:102E100092E00E94F40B60E080E00E94BB0B6FE93F
:102E200071E08CE793E00E94F40B409125025091F1
:102E30002602609127027091280222E08CE793E03D
:102E40000E94850C40912502509126026091270234
:102E50007091280222E089E892E00E94850C60E0EF
:102E600086E00E94BB0B6FED8CE793E00E940201AD
:102E700062EA71E08CE793E00E94F40B61E080E08D
:102E80000E94BB0B64EA71E08CE793E00E94F40BB4
:102E90006091290270912A028CE793E00E944F0C06
:102EA00067EA71E08CE793E00E94F40B61E088E050
:102EB0000E94BB0B69EA71E08CE793E00E94F40B7F
:102EC0008AE393E00E941C0920E030E048EC52E4E1
:102ED0000E949C19AB01BC0120E08CE793E00E94AA
:102EE000850C6DEA71E08CE793E00E94F40B8FEDA6
:102EF00090E00E94F6018AE393E00E941C0920E022
:102F000030E048EC52E40E949C19AB01BC0122E085
:102F100089E892E00E94850C6CEA71E089E892E011
:102F20000E94F40B62E871E089E892E0D0CE8091D3
:102F3000260390912703009711F00E94D61C8091E0
:102F40003E0390913F03009739F0DC01ED91FC9135
:102F50000280F381E02D0995809140039091410317
:102F6000009739F0DC01ED91FC910280F381E02DB6
:102F7000099408950E94FC1708F481E00895E894EC
:102F800009C097FB3EF490958095709561957F4FB1
:102F90008F4F9F4F9923A9F0F92F96E9BB2793955F
:102FA000F695879577956795B795F111F8CFFAF46F
:102FB000BB0F11F460FF1BC06F5F7F4F8F4F9F4FA0
:102FC00016C0882311F096E911C0772321F09EE8FE
:102FD000872F762F05C0662371F096E8862F70E064
:102FE00060E02AF09A95660F771F881FDAF7880F3E
:102FF0009695879597F90895990F0008550FAA0B94
:10300000E0E8FEEF16161706E807F907C0F01216FB
:103010001306E407F50798F0621B730B840B950BFE
:1030200039F40A2661F0232B242B252B21F4089553
:103030000A2609F4A140A6958FEF811D811D0895F0
:103040000E9433180C94A4180E94961838F00E941D
:103050009D1820F0952311F00C948D180C94931862
:1030600011240C94D8180E94B51870F3959FC1F3E1
:10307000950F50E0551F629FF001729FBB27F00D26
:10308000B11D639FAA27F00DB11DAA1F649F66277B
:10309000B00DA11D661F829F2227B00DA11D621FCA
:1030A000739FB00DA11D621F839FA00D611D221F84
:1030B000749F3327A00D611D231F849F600D211D68
:1030C000822F762F6A2F11249F5750409AF0F1F0EB
:1030D00088234AF0EE0FFF1FBB1F661F771F881F54
:1030E00091505040A9F79E3F510580F00C948D18E7
:1030F0000C94D8185F3FE4F3983ED4F38695779507
:103100006795B795F795E7959F5FC1F7FE2B880FF9
:10311000911D9695879597F9089597F99F6780E88F
:1031200070E060E008959FEF80EC089500240A9419
:103130001616170618060906089500240A94121692
:103140001306140605060895092E0394000C11F4C5
:10315000882352F0BB0F40F4BF2B11F460FF04C072
:103160006F5F7F4F8F4F9F4F089557FD9058440FCB
:10317000551F59F05F3F71F04795880F97FB991FD6
:1031800061F09F3F79F08795089512161306140693
:10319000551FF2CF4695F1DF08C016161706180620
:1031A000991FF1CF86957105610508940895E894FB
:1031B000BB2766277727CB0197F908950E9420192E
:1031C000A59F900DB49F900DA49F800D911D11247B
:1031D00008952F923F924F925F926F927F928F92BB
:1031E0009F92AF92BF92CF92DF92EF92FF920F9396
:1031F0001F93CF93DF93CDB7DEB7CA1BDB0B0FB6A0
:10320000F894DEBF0FBECDBF09942A88398848885C
:103210005F846E847D848C849B84AA84B984C884F2
:10322000DF80EE80FD800C811B81AA81B981CE0FE9
:10323000D11D0FB6F894DEBF0FBECDBFED010895CE
:10324000A29FB001B39FC001A39F700D811D1124E7
:10325000911DB29F700D811D1124911D089550582C
:10326000BB27AA270E9447190C94A4180E949618FD
:1032700038F00E949D1820F039F49F3F19F426F48D
:103280000C9493180EF4E095E7FB0C948D18E92F3D
:103290000E94B51858F3BA17620773078407950799
:1032A00020F079F4A6F50C94D7180EF4E0950B2EC7
:1032B000BA2FA02D0B01B90190010C01CA01A00188
:1032C0001124FF27591B99F0593F50F4503E68F1E3
:1032D0001A16F040A22F232F342F4427585FF3CF24
:1032E000469537952795A795F0405395C9F77EF4F5
:1032F0001F16BA0B620B730B840BBAF09150A1F03E
:10330000FF0FBB1F661F771F881FC2F70EC0BA0FC3
:10331000621F731F841F48F4879577956795B7954B
:10332000F7959E3F08F0B0CF9395880F08F0992746
:10333000EE0F9795879508950E94B0190C94A418E4
:103340000E949D1858F00E94961840F029F45F3FA3
:1033500029F00C948D1851110C94D8180C949318D2
:103360000E94B51868F39923B1F3552391F3951B87
:10337000550BBB27AA2762177307840738F09F5F96
:103380005F4F220F331F441FAA1FA9F335D00E2E03
:103390003AF0E0E832D091505040E695001CCAF770
:1033A0002BD0FE2F29D0660F771F881FBB1F261733
:1033B00037074807AB07B0E809F0BB0B802DBF010A
:1033C000FF2793585F4F3AF09E3F510578F00C94D9
:1033D0008D180C94D8185F3FE4F3983ED4F386958B
:1033E00077956795B795F7959F5FC9F7880F911DFA
:1033F0009695879597F90895E1E0660F771F881FE6
:10340000BB1F621773078407BA0720F0621B730B98
:10341000840BBA0BEE1F88F7E09508950E94151AE9
:103420006894B1110C94D81808950E94BD1888F0C2
:103430009F5798F0B92F9927B751B0F0E1F0660F78
:10344000771F881F991F1AF0BA95C9F714C0B130B9
:1034500091F00E94D718B1E008950C94D718672F07
:10346000782F8827B85F39F0B93FCCF386957795E8
:103470006795B395D9F73EF49095809570956195D1
:103480007F4F8F4F9F4F089597FB16F40E94881A25
:103490000C944B1AE894F92F96EBFF2381F0121647
:1034A00013061406440B9395F695879577956795C3
:1034B00057954040FF23B9F71BC0992708958823EB
:1034C00051F49850D2F7872B762F652F542F432F26
:1034D000322F20E0B1F3121613061406440B882392
:1034E0003AF09A95440F551F661F771F881FCAF739
:1034F00055234AF4440F551F11F460FF04C06F5F59
:103500007F4F8F4F9F4F880F9695879597F9089516
:103510009095809570956095509540953095219542
:103520003F4F4F4F5F4F6F4F7F4F8F4F9F4F0895CC
:103530000E94FC1708F48FEF08950E94FC17880B77
:10354000990B0895DB018F939F930E94DE18BF9122
:10355000AF91A29F800D911DA39F900DB29F900DE2
:1035600011240895991B79E004C0991F961708F05B
:10357000961B881F7A95C9F780950895A1E21A2EA7
:10358000AA1BBB1BFD010DC0AA1FBB1FEE1FFF1F07
:10359000A217B307E407F50720F0A21BB30BE40B57
:1035A000F50B661F771F881F991F1A9469F760959E
:1035B0007095809590959B01AC01BD01CF01089558
:1035C000B7FF0C94DE180E94DE18821B930B08953F
:1035D000DF93CF931F930F939A9DF02D219FF00DB2
:1035E0008B9DF00D8A9DE02DF10D039FF00D029F44
:1035F000E00DF11D4E9DE00DF11D5E9DF00D4F9D06
:10360000F00D7F936F93BF92AF925F934F93D5016D
:103610000E9420198B01AC01D7010E942019EB01F7
:10362000E80FF91FD6010E94371B2F913F91D60159
:103630000E942019C60FD71FE81FF91FAF91BF9135
:103640000E94371B2F913F910E942019C60FD71F50
:10365000E81FF91FD6010E942019E60FF71F9801F5
:10366000BE01CF010F911F91CF91DF9108950E946C
:103670002019460F571FC81FD91F08F43196089507
:10368000689401C0E894F92FF12B12F00C94741B8C
:10369000A0E0B0E0EEE4FBE10C94EF18092E0594F5
:1036A00022F40E94D01B112392F4F0E80F26FFEFC2
:1036B000E094F09400951095B094C094D094A194A7
:1036C000BF0ACF0ADF0AEF0AFF0A0F0B1F0B0E9487
:1036D0007F1B07FC0E94D01BCDB7DEB7ECE00C943B
:1036E0000B19689401C0E8948F929F92CF93DF9357
:1036F0000E947F1BDF91CF919F908F900895882427
:103700009924F401E401B0E49F93AA279A158B044D
:103710009C04ED05FE05CF05D007A10798F4AD2F59
:10372000DC2FCF2FFE2FE92D982C892E982F872F55
:10373000762F652F542F432F322F2227B85031F781
:10374000BF9127C01B2EBF91BB27220F331F441FE1
:10375000551F661F771F881F991F881C991CEE1F15
:10376000FF1FCC1FDD1FAA1FBB1F8A149B04EC0583
:10377000FD05CE05DF05A007B10748F08A189B08B4
:10378000EC09FD09CE09DF09A00BB10B21601A94E9
:10379000E1F62EF49401AF01BE01CD01000C0895B5
:1037A00060957095809590953095409550952195B0
:1037B0003F4F4F4F5F4F6F4F7F4F8F4F9F4F08953A
:1037C000002E083090F0982F872F762F652F542FDA
:1037D000432F322F22270850F4CF220F331F441FCC
:1037E000551F661F771F881F991F0A95B2F7002D76
:1037F000089597FD1094002E083098F00850232F5C
:10380000342F452F562F672F782F892F912DF4CFE6
:10381000159497958795779567955795479537951B
:1038200027950A95AAF71124002D08952A0D3B1D0E
:103830004C1D5D1D6E1D7F1D801F911F08952A194F
:103840003B094C095D096E097F09800B910B0895B6
:103850000024A7FD00942A17300540055005600597
:103860007005800590050895EE0FFF1F0590F491F7
:10387000E02D09940F931F93CF93DF93823091052E
:1038800010F482E090E0E0918A03F0918B0330E045
:1038900020E0B0E0A0E0309799F42115310509F45B
:1038A0004AC0281B390B24303105D8F58A819B8109
:1038B0006115710589F1FB0193838283FE0111C0BB
:1038C000408151810281138148175907E0F0481760
:1038D000590799F4109761F012960C93129713966A
:1038E0001C933296CF01DF91CF911F910F910895D4
:1038F00000938A0310938B03F4CF2115310551F007
:103900004217530738F0A901DB019A01BD01DF011D
:10391000F801C1CFEF01F9CF90938B0380938A0315
:10392000CDCFFE01E20FF31F819391932250310915
:1039300039832883D7CF2091880330918903232BA3
:1039400041F42091020130910301309389032093C7
:10395000880320910001309101012115310541F4C6
:103960002DB73EB74091040150910501241B350B42
:10397000E0918803F0918903E217F307A0F42E1B6E
:103980003F0B2817390778F0AC014E5F5F4F2417C3
:10399000350748F04E0F5F1F50938903409388030B
:1039A000819391939FCFF0E0E0E09CCFCF93DF93A2
:1039B0000097E9F0FC01329713821282A0918A03EA
:1039C000B0918B03ED0130E020E01097A1F420814D
:1039D0003181820F931F209188033091890328172A
:1039E000390709F061C0F0938903E0938803DF9100
:1039F000CF910895EA01CE17DF07E8F54A815B8190
:103A00009E0141155105B1F7E901FB83EA83499114
:103A10005991C40FD51FEC17FD0761F48081918186
:103A20000296840F951FE90199838883828193818F
:103A30009B838A83F0E0E0E012968D919C9113972E
:103A40000097B9F52D913C911197CD010296820F07
:103A5000931F20918803309189032817390739F67D
:103A6000309751F510928B0310928A03B09389031B
:103A7000A0938803BCCFD383C28340815181840F3C
:103A8000951FC817D90761F44E5F5F4F88819981F0
:103A9000480F591F518340838A819B81938382837E
:103AA0002115310509F0B0CFF0938B03E0938A0321
:103AB0009ECFFD01DC01C0CF13821282D7CFB0E0D0
:103AC000A0E0E5E6FDE10C94EB188C01009751F4C1
:103AD000CB010E943A1C8C01C801CDB7DEB7E0E1F2
:103AE0000C940719FC01E60FF71F9C0122503109C5
:103AF000E217F30708F49DC0D901CD91DC9111972D
:103B0000C617D70798F0C530D10530F3CE0104971A
:103B10008617970708F3C61BD70B2297C193D1933B
:103B20006D937C93CF010E94D61CD6CF5B01AC1A5B
:103B3000BD0A4C018C0E9D1EA0918A03B0918B038F
:103B4000512C412CF12CE12C109731F580918803F8
:103B5000909189038815990509F05CC046165706AF
:103B600008F058C08091000190910101009741F444
:103B70008DB79EB74091040150910501841B950BB0
:103B8000E817F90708F055C0F0938903E09388031C
:103B9000F90171836083A0CF8D919C91119712964A
:103BA0006C90129713967C901397A815B90559F548
:103BB0006C0142E0C40ED11CCA14DB0420F1AC013C
:103BC0004A195B09DA011296159780F062827382B6
:103BD00051834083D9016D937C93E114F10471F01A
:103BE000D7011396FC93EE93129776CF22968C0F03
:103BF0009D1FF90191838083F301EFCFF0938B0335
:103C0000E0938A0369CF4816590608F42C017D0118
:103C1000D3019ACFCB010E943A1C7C01009749F056
:103C2000AE01B8010E941C1EC8010E94D61C87016B
:103C300053CF10E000E050CFFB01DC0102C0019047
:103C40000D9241505040D8F70895FB01DC010190DE
:103C50000D920020E1F70895FB01DC014150504036
:103C600048F001900D920020C9F701C01D9241500B
:103C70005040E0F7089510E0C0E9D0E004C0FE0134
:103C80000E94341C2196C139D107C9F7F894FFCF9F
:103C900000008C038000000040001400540000006D
:103CA0000000A9010901360111026701450159010E
:103CB000000000003E061106F807E7050A06F705B2
:103CC000E8050000000038046B0D9A04D50D5B0E6A
:103CD0000000000038046D0D9A041B0EAA0E0000AF
:103CE0000000EE0B0901F807F7076E616E00696EC0
:103CF00066006F766600424D503238300041707277
:103D000020313720323032310032313A30373A34D4
:103D100036000D0A002D3E003C2D003C3E002000E8
:103D20004572726F72206F64637A79746F77005492
:103D30003A004300573A002500433A00206850619A
:023D4000000081
:107E0000112484B714BE81FFF0D085E080938100F7
:107E100082E08093C00088E18093C10086E0809377
:107E2000C20080E18093C4008EE0C9D0259A86E02C
:107E300020E33CEF91E0309385002093840096BBD3
:107E4000B09BFECF1D9AA8958150A9F7CC24DD24C4
:107E500088248394B5E0AB2EA1E19A2EF3E0BF2EE7
:107E6000A2D0813461F49FD0082FAFD0023811F036
:107E7000013811F484E001C083E08DD089C08234E0
:107E800011F484E103C0853419F485E0A6D080C0E4
:107E9000853579F488D0E82EFF2485D0082F10E0AE
:107EA000102F00270E291F29000F111F8ED06801E7
:107EB0006FC0863521F484E090D080E0DECF843638
:107EC00009F040C070D06FD0082F6DD080E0C81688
:107ED00080E7D80618F4F601B7BEE895C0E0D1E017
:107EE00062D089930C17E1F7F0E0CF16F0E7DF06D8
:107EF00018F0F601B7BEE89568D007B600FCFDCFD4
:107F0000A601A0E0B1E02C9130E011968C91119780
:107F100090E0982F8827822B932B1296FA010C0160
:107F200087BEE89511244E5F5F4FF1E0A038BF0790
:107F300051F7F601A7BEE89507B600FCFDCF97BE46
:107F4000E89526C08437B1F42ED02DD0F82E2BD052
:107F50003CD0F601EF2C8F010F5F1F4F84911BD097
:107F6000EA94F801C1F70894C11CD11CFA94CF0C13
:107F7000D11C0EC0853739F428D08EE10CD085E9AC
:107F80000AD08FE07ACF813511F488E018D01DD067
:107F900080E101D065CF982F8091C00085FFFCCF94
:107FA0009093C60008958091C00087FFFCCF809118
:107FB000C00084FD01C0A8958091C6000895E0E648
:107FC000F0E098E1908380830895EDDF803219F02E
:107FD00088E0F5DFFFCF84E1DECF1F93182FE3DFCA
:107FE0001150E9F7F2DF1F91089580E0E8DFEE27F6
:047FF000FF270994CA
:027FFE00040479
:00000001FF
